:100000000C9462000C948A000C948A000C948A0070
:100010000C948A000C948A000C948A000C948A0038
:100020000C948A000C948A000C948A000C948A0028
:100030000C948A000C948A000C948A000C948A0018
:100040000C94AF070C948A000C941F080C94F907C9
:100050000C948A000C948A000C948A000C948A00F8
:100060000C9451080C948A00000000002400270022
:100070002A0000000000250028002B0000000000DE
:1000800023002600290004040404040404040202DA
:100090000202020203030303030301020408102007
:1000A0004080010204081020010204081020000012
:1000B0000008000201000003040700000000000027
:1000C0000000700911241FBECFEFD8E0DEBFCDBF06
:1000D00011E0A0E0B1E0E4E2FEE102C005900D9283
:1000E000AC37B107D9F722E0ACE7B1E001C01D920F
:1000F000A93FB207E1F710E0C2E6D0E004C02197C3
:10010000FE010E94D60DC136D107C9F70E94D4095D
:100110000C94100F0C94000008950895833081F022
:1001200028F4813099F08230A9F008958730A9F041
:100130008830C9F08430B1F4809180008F7D03C095
:10014000809180008F7780938000089584B58F77A9
:1001500084BD089584B58F7DFBCF8091B0008F77EB
:100160008093B00008958091B0008F7DF9CFCF9338
:10017000DF93E0EBF0E08491ECE9F0E0D491E8E883
:10018000F0E0C491CC23A1F081110E948E00EC2FED
:10019000F0E0EE0FFF1FE458FF4FA591B491EC91F2
:1001A000ED2381E090E009F480E0DF91CF910895A4
:1001B00080E090E0FACF1F93CF93DF93282F30E0B9
:1001C000F901E255FF4F8491F901E656FF4FD491B2
:1001D000F901EA57FF4FC491CC23A9F0162F8111E2
:1001E0000E948E00EC2FF0E0EE0FFF1FEE58FF4F45
:1001F000A591B4918FB7F894EC91111108C0D095E6
:10020000DE23DC938FBFDF91CF911F910895DE2B0A
:10021000F8CF3FB7F8948091C8019091C901A0919F
:10022000CA01B091CB0126B5A89B05C02F3F19F09C
:100230000196A11DB11D3FBFBA2FA92F982F882766
:10024000BC01CD01620F711D811D911D42E0660F41
:10025000771F881F991F4A95D1F708958F929F9213
:10026000AF92BF92CF92DF92EF92FF924B015C016F
:100270000E9409016B017C010E9409016C197D0932
:100280008E099F09683E734081059105A8F321E01E
:10029000821A9108A108B10888EEC80E83E0D81E22
:1002A000E11CF11C81149104A104B10429F7FF9011
:1002B000EF90DF90CF90BF90AF909F908F90089578
:1002C000AF92BF92CF92DF92EF92FF920F931F9364
:1002D000CF93DF936C017B018B01040F151FEB01A2
:1002E0005E01AE18BF08C017D10759F06991D60159
:1002F000ED91FC910190F081E02DC6010995892BCB
:1003000079F7C501DF91CF911F910F91FF90EF9089
:10031000DF90CF90BF90AF900895FC01538D448D36
:10032000252F30E0842F90E0821B930B541710F0A0
:10033000CF96089501970895FC01918D828D9817AD
:1003400061F0A28DAE0FBF2FB11D5D968C91928D85
:100350009F5F9F73928F90E008958FEF9FEF0895B6
:10036000FC01918D828D981731F0828DE80FF11D7F
:10037000858D90E008958FEF9FEF0895FC01918D9A
:10038000228D892F90E0805C9F4F821B91098F7393
:100390009927089582E492E00E94BE0121E0892B12
:1003A00009F420E0822F089580E090E0892B29F065
:1003B0000E94CA0181110C9400000895FC01A48DD3
:1003C000A80FB92FB11DA35ABF4F2C91848D90E077
:1003D00001968F739927848FA689B7892C93A0895A
:1003E000B1898C91837080648C93938D848D9813E4
:1003F00006C00288F389E02D80818F7D8083089577
:10040000EF92FF920F931F93CF93DF93EC0181E064
:10041000888F9B8D8C8D98131AC0E889F98980810B
:1004200085FF15C09FB7F894EE89FF896083E8893E
:10043000F98980818370806480839FBF81E090E030
:10044000DF91CF911F910F91FF90EF900895F62EBD
:100450000B8D10E00F5F1F4F0F731127E02E8C8D57
:100460008E110CC00FB607FCFACFE889F98980819C
:1004700085FFF5CFCE010E94DE01F1CFEB8DEC0FB1
:10048000FD2FF11DE35AFF4FF0829FB7F8940B8FB9
:10049000EA89FB8980818062CFCFCF93DF93EC0123
:1004A000888D8823B9F0AA89BB89E889F9898C915C
:1004B00085FD03C0808186FD0DC00FB607FCF7CF18
:1004C0008C9185FFF2CF808185FFEDCFCE010E9418
:1004D000DE01E9CFDF91CF9108950895089520912D
:1004E0009D01260F3327331F21323105ECF4209173
:1004F0001802FC0190E080E0243069F082E0089569
:10050000A0919D012191AC0143585E4FA40FB52FDE
:10051000B11D2C930196861798F380919D01680F69
:1005200060939D0180E0089581E008951092180283
:1005300081E0809317021092F20161E082E10E9453
:10054000DB0061E083E10E94DB00E9EBF0E0808109
:100550008E7F808380818D7F808388E48093B80044
:1005600085E48093BC0008951092D1011092D001CF
:1005700010921F02109241020E9496028CE890E0B5
:100580009093CF018093CE018DE890E09093CD01C0
:100590008093CC010895CF93DF9391E090937C01F9
:1005A0008823B9F0C091B800D091BA008091BC0006
:1005B0008A7B8093BC0060E082E10E94DB0060E007
:1005C00083E10E94DB000E949602D093BA00C093A0
:1005D000B800DF91CF9108958F929F92AF92BF9212
:1005E000CF92DF92EF92FF920F931F93CF93DF93FF
:1005F000D0914102D13208F0D7C0182FC0914002EB
:100600000E9409016B017C018091180281116BC06D
:1006100082E080931802109317028FEF80931602E6
:1006200010921502D0931402A0E2B2E0E4EFF1E0E0
:1006300080E0D81391C01092F3018091F301CC0FA8
:10064000C82BC093F3018091F201813009F088C07A
:100650001092F2010E9409016B017C018091F3016B
:100660008093BB0080911A0290911B02A0911C0202
:10067000B0911D02892B8A2B8B2BA1F00E940901BE
:1006800000911A0210911B0220911C0230911D0250
:100690006C197D098E099F09061717072807390766
:1006A00008F442C08091BC0083FDD8CF85EC8093D4
:1006B000BC000E9409016B017C018091180282300C
:1006C00009F450C0809116028F3F09F46FC08091E9
:1006D0001602803209F46CC080911602803309F44E
:1006E00069C084E026C080911A0290911B02A091FB
:1006F0001C02B0911D02892B8A2B8B2B09F484CF0D
:100700000E94090180901A0290901B02A0901C0286
:10071000B0901D026C197D098E099F0986169706F7
:10072000A806B90608F070CF809119020E94CB028A
:1007300085E010921F021092410210921E02DF917A
:10074000CF911F910F91FF90EF90DF90CF90BF90CE
:10075000AF909F908F9008959D9191938F5F69CFF7
:1007600085EEA5CF80911A0290911B02A0911C02E8
:10077000B0911D02892B8A2B8B2B09F49ECF0E94EE
:10078000090100911A0210911B0220911C02309164
:100790001D026C197D098E099F0906171707280786
:1007A000390708F08ACFC0CF81E0C3CF80E0C1CF46
:1007B00082E0BFCF83E0BDCF1F93CF93DF93EA01E9
:1007C000122FDC0111968D919C91DC01ED91FC9131
:1007D0000280F381E02D0995C817D90729F4812FEC
:1007E0000E94EC0291E0811190E0892FDF91CF917E
:1007F0001F910895CF93DF93EC018B818823A1F0A3
:10080000888191E090931E028093400210921F0213
:100810001092410281E00E94EC0291E0811190E08F
:10082000892FDF91CF9108950E94B40281E08B83DC
:10083000CE010E94FA03982F8111E2CFF1CF0895E3
:10084000E091D1018091D001E81730F4F0E0EE5250
:10085000FE4F808190E008958FEF9FEF0895909173
:10086000D1018091D0012FEF3FEF981748F4E92F85
:10087000F0E0EE52FE4F208130E09F5F9093D10177
:10088000C90108958091D0019091D101891B990BE4
:100890000895CF92DF92EF92FF920F931F93CF9321
:1008A000DF937C01CB018A0120911E02222389F073
:1008B000EB016B01C40ED51ECC15DD0569F0699105
:1008C000D701ED91FC910190F081E02DC7010995D0
:1008D000F3CF642F0E946F02C801DF91CF911F9167
:1008E0000F91FF90EF90DF90CF900895CF93DF931B
:1008F0001F92CDB7DEB7698320911E022223F9F043
:1009000020914102203258F021E030E0FC01338395
:10091000228390E080E00F90DF91CF910895809145
:100920001F02E82FF0E0E05EFD4F998190838F5F1A
:1009300080931F028093410281E090E0ECCF61E060
:10094000CE0101960E946F02F7CF90E080E00895FB
:10095000CF93DF9300D0CDB7DEB789836A838091D0
:10096000ED029091EE02FC012481358122303105A7
:10097000B8F0208131E030931E02209340021092A3
:100980001F021092410221E042E050E0BE016F5F81
:100990007F4F0E94DC030F900F90DF91CF9108955D
:1009A00080E0F9CFEBEEF2E080879187682F8DE34E
:1009B00090E00E94A8046EE170E080E090E00C946A
:1009C0002E012F923F924F925F926F927F928F9261
:1009D0009F92AF92BF92CF92DF92EF92FF920F93CE
:1009E0001F93CF93DF93DC011496ED91FC91159743
:1009F000EF2B09F412C169012A01EC01888191E011
:100A000090931E028093400210921F0210924102A6
:100A100020E041E050E0CD010E94DC03782E8823E5
:100A200009F4FBC0F12CE12C33243394EC14FD04C5
:100A300008F0F4C08C819D8186010E191F09801772
:100A4000910708F48C0128800E9409014B015C0188
:100A500080911802811173C0602EB0E2B01710F4BB
:100A600080E2682E3092180221E0C601801B910BB3
:100A7000E816F90608F420E020931702EFEFE09360
:100A80001602109215028FEF860D80931402309299
:100A9000F3018091F301220C282A2092F301809126
:100AA000F201813009F090C01092F2010E94090118
:100AB0004B015C018091F3018093BB0080911A028D
:100AC00090911B02A0911C02B0911D02892B8A2BD0
:100AD0008B2BA1F00E94090120911A0230911B0278
:100AE00040911C0250911D02681979098A099B09DD
:100AF000261737074807590708F442C08091BC0001
:100B000083FDD8CFF5ECF093BC000E9409014B01A6
:100B10005C0180911802813009F45AC0809115025D
:100B2000861510F460901502A4EFB1E0E2EDF1E05B
:100B300080E0861551F19D9191938F5FFACF80915E
:100B40001A0290911B02A0911C02B0911D02892BE8
:100B50008A2B8B2B09F47CCF0E94090120911A0269
:100B600030911B0240911C0250911D0268197909B5
:100B70008A099B09261737074807590708F068CFE5
:100B8000809119020E94CB02612C1092D1016092D7
:100B9000D0016016110609F040C042018E0C9F1C66
:100BA0005401C501881999098017910798F5898121
:100BB0009A81DC01ED91FC910284F385E02D099589
:100BC000F50181935F01EDCF85EE8093BC009DCF51
:100BD00080911A0290911B02A0911C02B0911D02FB
:100BE000892B8A2B8B2B09F494CF0E940901209129
:100BF0001A0230911B0240911C0250911D0268198B
:100C000079098A099B09261737074807590708F009
:100C100080CFB6CFE00EF11E09CF712C872DDF916A
:100C2000CF911F910F91FF90EF90DF90CF90BF90E9
:100C3000AF909F908F907F906F905F904F903F907C
:100C40002F900895CF93DF931F92CDB7DEB719820F
:100C500021E030E0AE014F5F5F4FBA018091ED02BD
:100C60009091EE020E94E10489810F90DF91CF9173
:100C70000895FC0101900020E9F73197AF01481B6E
:100C8000590BBC0182E492E00C946001CF93DF9396
:100C90000E943906EC0188E391E00E9439068C0F2E
:100CA0009D1FDF91CF910895CF92DF92EF92FF9237
:100CB0000F931F93CF93DF9300D000D000D01F92EB
:100CC000CDB7DEB78C01FB018CE0D8011D928A956F
:100CD000E9F7AE014F5F5F4F86E0DA011D928A951A
:100CE000E9F78AE18F8326E030E0BE01695F7F4F3C
:100CF000828193810E94E104CB80DC80ED80FE80C4
:100D000069817A81072E000C880B990B0E94920C46
:100D100020E030E040E85DE30E94470DF801608389
:100D2000718382839383B601DD0C880B990B0E943B
:100D3000920C20E030E040E85DE30E94470DD801CE
:100D400014966D937D938D939C931797B701FF0C29
:100D5000880B990B0E94920C20E030E040E85DE3A4
:100D60000E94470DF8016087718782879387C801C9
:100D700027960FB6F894DEBF0FBECDBFDF91CF919F
:100D80001F910F91FF90EF90DF90CF9008950F93F8
:100D90001F93CF93DF93CDB7DEB72C970FB6F894A0
:100DA000DEBF0FBECDBF8B01FB01349620E2DF0119
:100DB0001D922A95E9F744E250E060E070E0F80106
:100DC0004083518362837383DC0114964D915D915E
:100DD0006D917C911797448355836683778343E0B5
:100DE00050E060E070E040875187628773872FB7DB
:100DF000F8944091C4015091C5016091C601709171
:100E0000C7012FBF408B518B628B738BBC01CE010E
:100E100001960E94540689819A81AB81BC81F801B8
:100E2000848B958BA68BB78B8D819E81AF81B88586
:100E3000808F918FA28FB38F89859A85AB85BC8572
:100E4000848F958FA68FB78F81E02C960FB6F8947C
:100E5000DEBF0FBECDBFDF91CF911F910F910895DF
:100E60000C94780E0F931F93CF93DF938C01EB01BB
:100E700088E2FB0111928A95E9F74BE050E06BE3C1
:100E800071E0CE010E94010F1B8681E090E0A0E09E
:100E9000B0E08C879D87AE87BF87F80184819581FC
:100EA000A681B781888B998BAA8BBB8B83E090E05E
:100EB000A0E0B0E08C8B9D8BAE8BBF8B1CA21DA2E3
:100EC0001EA21FA2188E198E1A8E1B8E1C8E1D8EAE
:100ED0001E8E1F8E8AE097EDA3E2BCE388A399A340
:100EE000AAA3BBA3DF91CF911F910F91089585ED28
:100EF0008093BC0080911A0290911B02A0911C0269
:100F0000B0911D020796A11DB11D23E0B695A795CE
:100F1000979587952A95D1F72091BC0024FD03C0B1
:100F200010921802089540911A0250911B0260918C
:100F30001C0270911D02452B462B472B69F300972D
:100F4000A105B10541F02AE22A95F1F700C0019709
:100F5000A109B109E1CF809119020C94CB021F9233
:100F60000F920FB60F9211242F933F938F939F935D
:100F7000AF93BF938091C4019091C501A091C60128
:100F8000B091C7013091C30123E0230F2D3758F5ED
:100F90000196A11DB11D2093C3018093C4019093BC
:100FA000C501A093C601B093C7018091C80190917B
:100FB000C901A091CA01B091CB010196A11DB11D3B
:100FC0008093C8019093C901A093CA01B093CB014B
:100FD000BF91AF919F918F913F912F910F900FBE35
:100FE0000F901F90189526E8230F0296A11DB11DA2
:100FF000D2CF1F920F920FB60F9211242F933F93CF
:101000004F935F936F937F938F939F93AF93BF9310
:10101000EF93FF9382E492E00E94DE01FF91EF9153
:10102000BF91AF919F918F917F916F915F914F9100
:101030003F912F910F900FBE0F901F9018951F9208
:101040000F920FB60F9211242F938F939F93EF93CC
:10105000FF93E0915202F09153028081E091580297
:10106000F091590282FD1BC0908180915B028F5FDD
:101070008F7320915C02821741F0E0915B02F0E0F7
:10108000EE5BFD4F958F80935B02FF91EF919F91F7
:101090008F912F910F900FBE0F901F901895808108
:1010A000F4CF1F920F920FB60F9211242F933F93FC
:1010B0004F935F936F937F938F939F93AF93BF9360
:1010C000EF93FF938091B900887F803609F44AC07E
:1010D000F0F5883209F4A7C018F5803109F49BC0F7
:1010E000B8F4882309F4F9C0883009F494C0FF915A
:1010F000EF91BF91AF919F918F917F916F915F9190
:101100004F913F912F910F900FBE0F901F90189508
:10111000883109F488C0803251F78093160214C0D8
:10112000803409F49DC040F48033B9F38833F9F674
:101130008093160285ECB0C0803509F485C08835EF
:1011400009F496C0883499F60E947707D0CF883981
:1011500009F48CC038F5883729F050F4883611F03E
:10116000803729F683E0809318021092BF0157C0A0
:10117000883809F47BC0803919F0803809F0B7CF7E
:101180008091BF01803208F071C0E091BF0181E021
:101190008E0F8093BF018091BB00F0E0E156FE4FBF
:1011A00080833DC0803B39F0E0F4803A09F479C097
:1011B000883A09F09CCF84E08093180210929E0137
:1011C00010929D01E091CE01F091CF01099580919F
:1011D0009D0181110FC081E080939D0110927D01DE
:1011E00009C0803C09F4A6CF883C09F4A3CF883B12
:1011F00009F07DCFE0919E0181E08E0F80939E01EA
:10120000F0E0E358FE4F80818093BB0090919E01F7
:1012100080919D0129C08091F3018093BB0085ECF2
:101220008093BC0064CF90911502809114029817AE
:1012300058F5E091150281E08E0F80931502F0E0E1
:10124000EC50FE4F8081E9CFE091150281E08E0FD6
:10125000809315028091BB00F0E0EC50FE4F80833C
:1012600090911502809114029817C8F285E8D8CFA2
:10127000E091150281E08E0F809315028091BB00F2
:10128000F0E0EC50FE4F80838091170281115CCF1B
:1012900081E08093F20184EA8093BC0010921802EE
:1012A00026CF85EC8093BC00109218028091BF017C
:1012B000803230F4E091BF01F0E0E156FE4F108241
:1012C0006091BF0170E0E091CC01F091CD018FE918
:1012D00091E009951092BF010ACF1092160234CF07
:1012E0000F931F93CF93DF93E2E4F2E01382128215
:1012F00088EE93E0A0E0B0E084839583A683B78373
:101300002AE031E03183208325EC30E035872487E3
:1013100024EC30E03787268720EC30E0318B208BBF
:1013200021EC30E0338B228B22EC30E0358B248BA8
:1013300026EC30E0378B268B118E128E138E148E96
:10134000CFEDD2E01B821A828C839D83AE83BF8354
:101350008CE191E0998388830BEE12E08EE291E0BC
:10136000D8018D939C9387E390E0A0E0B0E0F80172
:1013700084839583A683B78386E090E00E94DC0D8A
:10138000FC0188E28083D283C183138280E290E0F3
:1013900095838483D8011396FC93EE931297DF9183
:1013A000CF911F910F910895CF93DF93CDB7DEB703
:1013B000AD970FB6F894DEBF0FBECDBF789484B55D
:1013C000826084BD84B5816084BD85B5826085BD41
:1013D00085B5816085BD80916E00816080936E00CF
:1013E00010928100809181008260809381008091C1
:1013F0008100816080938100809180008160809372
:1014000080008091B10084608093B1008091B00031
:1014100081608093B00080917A00846080937A002C
:1014200080917A00826080937A0080917A00816056
:1014300080937A0080917A00806880937A0010927D
:10144000C100E0915202F091530282E08083E0916A
:101450004E02F0914F021082E0915002F091510241
:101460008FEC808310925A02E0915602F09157025D
:1014700086E08083E0915402F09155028081806182
:101480008083E0915402F0915502808188608083CE
:10149000E0915402F0915502808180688083E09150
:1014A0005402F091550280818F7D8083ECE9F0E059
:1014B0002491E8E8F0E084918823C9F090E0880F57
:1014C000991FFC01E859FF4F45915491FC01EE58DA
:1014D000FF4FA591B4919FB7F894FA0180812095B0
:1014E000822380838C91E22FE823EC939FBF0091AD
:1014F000ED021091EE020E94B40281E0F8018383B4
:1015000005E510E0DD24D394E090ED02F090EE02CA
:101510000E94B402F701D382C7010E94FA0381112D
:101520002FC16AE070E080E090E00E942E0101503F
:10153000110951F782E491E00E944606FFCF62E371
:1015400070E080E090E00E942E0160E08EE390E089
:101550000E94A8046AE070E080E090E00E942E0102
:1015600060E087E090E00E94A80460E08FE390E0F4
:101570000E94A8046AE070E080E090E00E942E01E2
:101580008CE090E00E94D20464E170E080E090E0A2
:101590000E942E0168EE73E080E090E00E942E0130
:1015A0000091F3021091F40290E080E00E94D204D6
:1015B00069E170E080E090E00E942E0160E087E049
:1015C00090E00E94A80460E88FE390E00E94A804E5
:1015D0006AE070E080E090E00E942E01C8010E9465
:1015E000D20464E170E080E090E00E942E018AE085
:1015F000882E912CA12CB12C00E010E0772473945C
:101600006BEE72E0CE0182960E945406CAA4DBA45F
:10161000ECA4FDA420E030E040E252E4C701B601B2
:101620000E94420D18160CF48BC020E030E040E21E
:1016300052ECC701B6010E94550C87FD86C0C70158
:10164000B601905820E030E040E252E40E94E90BFD
:1016500020E030E040EA51E40E94470D0E945A0C1D
:101660002091C1013091C20126173707D9F170933B
:10167000C2016093C10184E791E00E943906C090E5
:10168000C101D090C2010D2C000CEE08FF08F7FE3E
:1016900061C06DE282E492E00E94000222273327BB
:1016A000A9012C193D094E095F0919A2CE018196A5
:1016B0007C01CA01B901A50194010E94B40D605DCD
:1016C000F70162937F01211531054105510589F725
:1016D000E114F10419F0C7010E94390688E391E092
:1016E0000E9439068091C00181110EC00E94B7008E
:1016F000892BA1F07092C00187E791E00E94460615
:101700008091C001882351F00E94B700892B31F4E9
:101710001092C00189E791E00E94460664E670E0FD
:1017200080E090E00E942E010115110509F468CFB8
:101730000E94CA01882309F463CF0E94000060CF91
:1017400060E070E080E292EC7DCF60E070E080E2EB
:1017500092E478CFA701960119A2CE0181967C016F
:10176000CA01B901A50194010E94B40D605DF701A1
:1017700062937F01211531054105510589F7A8CFF5
:101780000E942206803A59F068EE73E080E090E013
:101790000E942E010E942206803A09F0CBCE90E0F2
:1017A00080E00E94D20460E28FE390E00E94A804EF
:1017B0006EE170E080E090E00E942E010E9422061F
:1017C000803A09F4BCCE6AE070E080E090E0F4CFAB
:1017D0005058BB27AA270E94000C0C94080D0E94A9
:1017E000FA0C38F00E94010D20F039F49F3F19F4F3
:1017F00026F40C94F70C0EF4E095E7FB0C94F10C36
:10180000E92F0E94190D58F3BA176207730784076E
:10181000950720F079F4A6F50C943B0D0EF4E095B5
:101820000B2EBA2FA02D0B01B90190010C01CA019A
:10183000A0011124FF27591B99F0593F50F4503E45
:1018400068F11A16F040A22F232F342F4427585F37
:10185000F3CF469537952795A795F0405395C9F74F
:101860007EF41F16BA0B620B730B840BBAF0915007
:10187000A1F0FF0FBB1F661F771F881FC2F70EC0A6
:10188000BA0F621F731F841F48F487957795679579
:10189000B795F7959E3F08F0B0CF9395880F08F065
:1018A0009927EE0F9795879508950E94CD0C08F41F
:1018B00081E008950E94610C6894B1110C943C0D74
:1018C00008950E94210D88F09F5798F0B92F99270D
:1018D000B751B0F0E1F0660F771F881F991F1AF01B
:1018E000BA95C9F714C0B13091F00E943B0DB1E038
:1018F00008950C943B0D672F782F8827B85F39F037
:10190000B93FCCF3869577956795B395D9F73EF4B3
:1019100090958095709561957F4F8F4F9F4F08955B
:10192000E89409C097FB3EF4909580957095619579
:101930007F4F8F4F9F4F9923A9F0F92F96E9BB272F
:101940009395F695879577956795B795F111F8CFAB
:10195000FAF4BB0F11F460FF1BC06F5F7F4F8F4F16
:101960009F4F16C0882311F096E911C0772321F00C
:101970009EE8872F762F05C0662371F096E8862FA4
:1019800070E060E02AF09A95660F771F881FDAF7FB
:10199000880F9695879597F90895990F0008550F28
:1019A000AA0BE0E8FEEF16161706E807F907C0F0E5
:1019B00012161306E407F50798F0621B730B840BED
:1019C000950B39F40A2661F0232B242B252B21F4C7
:1019D00008950A2609F4A140A6958FEF811D811D67
:1019E000089597F99F6780E870E060E008959FEFA1
:1019F00080EC089500240A941616170618060906A6
:101A0000089500240A941216130614060506089574
:101A1000092E0394000C11F4882352F0BB0F40F4FC
:101A2000BF2B11F460FF04C06F5F7F4F8F4F9F4F3C
:101A3000089557FD9058440F551F59F05F3F71F0BE
:101A40004795880F97FB991F61F09F3F79F0879525
:101A50000895121613061406551FF2CF4695F1DFAE
:101A600008C0161617061806991FF1CF869571053E
:101A7000610508940895E894BB2766277727CB0172
:101A800097F908950E94CD0C08F48FEF08950E94F5
:101A90005A0D0C94080D0E94FA0C38F00E94010DAA
:101AA00020F0952311F00C94F10C0C94F70C1124F8
:101AB0000C943C0D0E94190D70F3959FC1F3950F86
:101AC00050E0551F629FF001729FBB27F00DB11DC2
:101AD000639FAA27F00DB11DAA1F649F6627B00D52
:101AE000A11D661F829F2227B00DA11D621F739F3B
:101AF000B00DA11D621F839FA00D611D221F749F49
:101B00003327A00D611D231F849F600D211D822F8F
:101B1000762F6A2F11249F5750409AF0F1F08823B6
:101B20004AF0EE0FFF1FBB1F661F771F881F9150E3
:101B30005040A9F79E3F510580F00C94F10C0C9495
:101B40003C0D5F3FE4F3983ED4F386957795679517
:101B5000B795F795E7959F5FC1F7FE2B880F911D0D
:101B60009695879597F90895A1E21A2EAA1BBB1B9B
:101B7000FD010DC0AA1FBB1FEE1FFF1FA217B30759
:101B8000E407F50720F0A21BB30BE40BF50B661F6F
:101B9000771F881F991F1A9469F760957095809533
:101BA00090959B01AC01BD01CF010895EE0FFF1F81
:101BB0000590F491E02D09940F931F93CF93DF9339
:101BC0008230910510F482E090E0E091F702F0910C
:101BD000F80230E020E0B0E0A0E0309799F4211561
:101BE000310509F44AC0281B390B24303105D8F5DA
:101BF0008A819B816115710589F1FB019383828341
:101C0000FE0111C04081518102811381481759079B
:101C1000E0F04817590799F4109761F012960C9369
:101C2000129713961C933296CF01DF91CF911F919B
:101C30000F9108950093F7021093F802F4CF211545
:101C4000310551F04217530738F0A901DB019A0121
:101C5000BD01DF01F801C1CFEF01F9CF9093F80288
:101C60008093F702CDCFFE01E20FF31F8193919392
:101C70002250310939832883D7CF2091F502309142
:101C8000F602232B41F4209102013091030130939D
:101C9000F6022093F50220910001309101012115F7
:101CA000310541F42DB73EB7409104015091050133
:101CB000241B350BE091F502F091F602E217F307D1
:101CC000A0F42E1B3F0B2817390778F0AC014E5FAC
:101CD0005F4F2417350748F04E0F5F1F5093F602F1
:101CE0004093F502819391939FCFF0E0E0E09CCF89
:101CF000CF93DF930097E9F0FC01329713821282B1
:101D0000A091F702B091F802ED0130E020E01097C9
:101D1000A1F420813181820F931F2091F50230912F
:101D2000F6022817390709F061C0F093F602E09334
:101D3000F502DF91CF910895EA01CE17DF07E8F5AC
:101D40004A815B819E0141155105B1F7E901FB8391
:101D5000EA8349915991C40FD51FEC17FD0761F42F
:101D6000808191810296840F951FE9019983888370
:101D7000828193819B838A83F0E0E0E012968D91CB
:101D80009C9113970097B9F52D913C911197CD0136
:101D90000296820F931F2091F5023091F6022817C8
:101DA000390739F6309751F51092F8021092F70280
:101DB000B093F602A093F502BCCFD383C2834081D7
:101DC0005181840F951FC817D90761F44E5F5F4F8B
:101DD00088819981480F591F518340838A819B8153
:101DE000938382832115310509F0B0CFF093F80277
:101DF000E093F7029ECFFD01DC01C0CF1382128277
:101E0000D7CFFB01DC014150504048F001900D92CA
:101E10000020C9F701C01D9241505040E0F70895DD
:041E2000F894FFCF64
:101E24000000F902800000000000000260018D0142
:101E34004D02BE019C01B00100000000760449047B
:101E4400A5041F0442042F042004000000006D02B6
:101E540030076E02C70632070D0A00424E4F303576
:101E64003500424E4F303535206E69636874206703
:101E74006566756E64656E212042697474652056CA
:101E840065726B6162656C756E67207072C3BC6647
:0C1E9400656E2E00582000410061000027
:00000001FF
