:100000000C9462000C948A000C948A000C948A0070
:100010000C948A000C948A000C948A000C948A0038
:100020000C948A000C948A000C948A000C948A0028
:100030000C948A000C948A000C948A000C948A0018
:100040000C9411020C948A000C9481020C945B02B3
:100050000C948A000C948A000C948A000C948A00F8
:100060000C948A000C948A000000000025002800EF
:100070002B0000000000240027002A0000000000E0
:1000800023002600290004040404040404040202DA
:100090000202020203030303030301020408102007
:1000A0004080010204081020010204081020000012
:1000B0000008000201000003040700000000000027
:1000C0000000F60311241FBECFEFD8E0DEBFCDBF86
:1000D00011E0A0E0B1E0EAE9F8E002C005900D927D
:1000E000AC31B107D9F721E0ACE1B1E001C01D921C
:1000F000A53CB207E1F710E0C2E6D0E004C02197CA
:10010000FE010E944504C136D107C9F70E94B3021F
:100110000C944B040C940000E0EBF0E08491ECE9CB
:10012000F0E09491E8E8F0E0E491EE23C1F1882357
:1001300039F08330E9F090F4813001F1823011F12F
:10014000F0E0EE0FFF1FE458FF4FA591B491EC9142
:10015000E92381E090E029F580E008958730A9F057
:100160008830C9F0843061F7809180008F7D03C0B2
:10017000809180008F7780938000E2CF84B58F7765
:1001800084BDDECF84B58F7DFBCF8091B0008F77AB
:100190008093B000D5CF8091B0008F7DF9CF80E003
:1001A00090E008953FB7F894809124019091250143
:1001B000A0912601B091270126B5A89B05C02F3F2D
:1001C00019F00196A11DB11D3FBFBA2FA92F982F7D
:1001D0008827BC01CD01620F711D811D911D42E078
:1001E000660F771F881F991F4A95D1F70895AF9220
:1001F000BF92CF92DF92EF92FF920F931F93CF9314
:10020000DF936C017B018B01040F151FEB015E0175
:10021000AE18BF08C017D10759F06991D601ED910A
:10022000FC910190F081E02DC6010995892B79F7A9
:10023000C501DF91CF911F910F91FF90EF90DF905B
:10024000CF90BF90AF900895FC01538D448D252F22
:1002500030E0842F90E0821B930B541710F0CF9660
:10026000089501970895FC01918D828D981761F092
:10027000A28DAE0FBF2FB11D5D968C91928D9F5FA9
:100280009F73928F90E008958FEF9FEF0895FC0188
:10029000918D828D981731F0828DE80FF11D858D3B
:1002A00090E008958FEF9FEF0895FC01918D228DCE
:1002B000892F90E0805C9F4F821B91098F73992753
:1002C000089588E291E00E94550121E0892B09F40C
:1002D00020E0822F089580E090E0892B29F00E9491
:1002E000610181110C9400000895FC01A48DA80FF8
:1002F000B92FB11DA35ABF4F2C91848D90E0019668
:100300008F739927848FA689B7892C93A089B18987
:100310008C91837080648C93938D848D981306C028
:100320000288F389E02D80818F7D80830895EF928C
:10033000FF920F931F93CF93DF93EC0181E0888F9F
:100340009B8D8C8D98131AC0E889F989808185FF6F
:1003500015C09FB7F894EE89FF896083E889F98911
:1003600080818370806480839FBF81E090E0DF9113
:10037000CF911F910F91FF90EF900895F62E0B8D66
:1003800010E00F5F1F4F0F731127E02E8C8D8E1121
:100390000CC00FB607FCFACFE889F989808185FF88
:1003A000F5CFCE010E947501F1CFEB8DEC0FFD2F43
:1003B000F11DE35AFF4FF0829FB7F8940B8FEA8943
:1003C000FB8980818062CFCFCF93DF93EC01888D52
:1003D0008823B9F0AA89BB89E889F9898C9185FDC0
:1003E00003C0808186FD0DC00FB607FCF7CF8C914E
:1003F00085FFF2CF808185FFEDCFCE010E94750190
:10040000E9CFDF91CF910895FC0101900020E9F739
:100410003197AF01481B590BBC0188E291E00C9465
:10042000F7001F920F920FB60F9211242F933F9354
:100430008F939F93AF93BF9380912001909121015F
:10044000A0912201B091230130911F0123E0230FDD
:100450002D3758F50196A11DB11D20931F018093E2
:10046000200190932101A0932201B0932301809158
:10047000240190912501A0912601B09127010196B8
:10048000A11DB11D8093240190932501A093260105
:10049000B0932701BF91AF919F918F913F912F9181
:1004A0000F900FBE0F901F90189526E8230F02960D
:1004B000A11DB11DD2CF1F920F920FB60F92112422
:1004C0002F933F934F935F936F937F938F939F935C
:1004D000AF93BF93EF93FF9388E291E00E94750181
:1004E000FF91EF91BF91AF919F918F917F916F910C
:1004F0005F914F913F912F910F900FBE0F901F90E2
:1005000018951F920F920FB60F9211242F938F936D
:100510009F93EF93FF93E0913801F091390180812F
:10052000E0913E01F0913F0182FD1BC090818091DE
:1005300041018F5F8F7320914201821741F0E0915A
:100540004101F0E0E85DFE4F958F80934101FF91FE
:10055000EF919F918F912F910F900FBE0F901F9051
:1005600018958081F4CFCF93DF93CDB7DEB7A197F5
:100570000FB6F894DEBF0FBECDBF789484B582600D
:1005800084BD84B5816084BD85B5826085BD85B537
:10059000816085BD80916E00816080936E001092B5
:1005A0008100809181008260809381008091810030
:1005B00081608093810080918000816080938000C1
:1005C0008091B10084608093B1008091B00081601F
:1005D0008093B00080917A00846080937A0080914B
:1005E0007A00826080937A0080917A0081608093A3
:1005F0007A0080917A00806880937A001092C1001E
:10060000E0913801F091390182E08083E09134017A
:10061000F09135011082E0913601F09137018FECB5
:10062000808310924001E0913C01F0913D0186E011
:100630008083E0913A01F0913B0180818061808369
:10064000E0913A01F0913B01808188608083E091E4
:100650003A01F0913B01808180688083E0913A010A
:10066000F0913B0180818F7D8083ECE9F0E0249163
:10067000E8E8F0E084918823C9F090E0880F991FA2
:10068000FC01EE58FF4F45915491FC01E859FF4F92
:10069000A591B4919FB7F894FA01808120958223A7
:1006A00080838C91E22FE823EC939FBF80E4782E27
:1006B0009AE0892E912CA12CB12C00E010E0662448
:1006C000639480911E0181110EC00E948C00892BC1
:1006D000C1F082E191E00E94040284E191E00E9475
:1006E000040260921E010E948C00892B51F487E164
:1006F00091E00E94040284E191E00E9404021092C1
:100700001E0170927C0080917A00806480937A0050
:1007100080917A0086FDFCCF8091780090917900DD
:1007200020911C0130911D0128173907D9F19093B0
:100730001D0180931C0189E191E00E940402C09098
:100740001C01D0901D010D2C000CEE08FF08F7FED7
:1007500037C06DE288E291E00E949701222733279B
:10076000A9012C193D094E095F0919A2CE018196F4
:100770007C01CA01B901A50194010E942304605DB6
:10078000F70162937F01211531054105510589F774
:10079000E114F10419F0C7010E94040284E191E020
:1007A0000E9404020E94D2000115110509F489CFAC
:1007B0000E946101882309F484CF0E94000081CF48
:1007C000A701960119A2CE0181967C01CA01B90147
:1007D000A50194010E942304605DF70162937F01EB
:1007E000211531054105510589F7D2CFE8E2F1E045
:1007F0001382128288EE93E0A0E0B0E084839583B8
:10080000A683B78384E091E09183808385EC90E0B8
:100810009587848784EC90E09787868780EC90E0CA
:10082000918B808B81EC90E0938B828B82EC90E0BB
:10083000958B848B86EC90E0978B868B118E128E35
:10084000138E148E0895A1E21A2EAA1BBB1BFD0164
:100850000DC0AA1FBB1FEE1FFF1FA217B307E4079F
:10086000F50720F0A21BB30BE40BF50B661F771FF7
:10087000881F991F1A9469F76095709580959095D7
:100880009B01AC01BD01CF010895EE0FFF1F059044
:0A089000F491E02D0994F894FFCFD5
:10089A00000000009701F7002401E401550133012B
:0C08AA00470141000D0A006100582000C9
:00000001FF
